:100000000C9461000C9473000C9473000C947300B6
:100010000C9473000C9473000C9473000C94730094
:100020000C9473000C9473000C9473000C94730084
:100030000C9473000C9473000C9473000C94730074
:100040000C9423010C9473000C9473000C947300B3
:100050000C9473000C9473000C9473000C94730054
:100060000C9473000C94730000000000240027001F
:100070002A000000000023002600290000000000E4
:10008000250028002B0004040404040404040202D4
:100090000202020203030303030301020408102007
:1000A0004080010204081020010204081020000012
:1000B0000008000201000003040700000000000027
:1000C000000011241FBECFEFD8E0DEBFCDBF21E07E
:1000D000A0E0B1E001C01D92A930B207E1F70E9493
:1000E0006D010C94D9010C940000833081F028F448
:1000F000813099F08230A9F008958730A9F08830D6
:10010000C9F08430B1F4809180008F7D03C080916C
:1001100080008F7780938000089584B58F7784BDA9
:10012000089584B58F7DFBCF8091B0008F77809349
:10013000B00008958091B0008F7DF9CF1F93CF93C9
:10014000DF93E0EBF0E09491ECE9F0E0D491E8E8A3
:10015000F0E0C491CC23B9F0182F992319F0892F1E
:100160000E947500EC2FF0E0EE0FFF1FE458FF4FE8
:10017000A591B4918FB7F894EC91111108C0D09566
:10018000DE23DC938FBFDF91CF911F910895DE2B8B
:10019000F8CFCF93DF93282F30E0F901E255FF4FDE
:1001A0008491F901E656FF4FD491F901EA57FF4FC8
:1001B000C491CC23A1F081110E947500EC2FF0E0D6
:1001C000EE0FFF1FEE58FF4FA591B491EC91ED2378
:1001D00081E090E009F480E0DF91CF91089580E024
:1001E00090E0FACFCF93DF9390E0FC01E656FF4F0B
:1001F00024918A579F4FFC0184918823D1F090E08D
:10020000880F991FFC01E859FF4FA591B491FC019B
:10021000E458FF4FC591D49161110EC09FB7F89477
:100220008C91E22FE0958E238C932881E223E88342
:100230009FBFDF91CF9108958FB7F894EC91E22B97
:10024000EC938FBFF6CF1F920F920FB60F9211242F
:100250002F933F938F939F93AF93BF93809105010B
:1002600090910601A0910701B0910801309104011D
:1002700023E0230F2D3758F50196A11DB11D2093C2
:1002800004018093050190930601A0930701B093A8
:1002900008018091000190910101A0910201B091AB
:1002A00003010196A11DB11D8093000190930101EE
:1002B000A0930201B0930301BF91AF919F918F91E1
:1002C0003F912F910F900FBE0F901F90189526E829
:1002D000230F0296A11DB11DD2CF789484B5826000
:1002E00084BD84B5816084BD85B5826085BD85B5DA
:1002F000816085BD80916E00816080936E00109258
:1003000081008091810082608093810080918100D2
:100310008160809381008091800081608093800063
:100320008091B10084608093B1008091B0008160C1
:100330008093B00080917A00846080937A008091ED
:100340007A00826080937A0080917A008160809345
:100350007A0080917A00806880937A001092C100C0
:1003600060E085E00E94F20060E086E00E94F2001A
:1003700060E087E00E94F20060E088E00E94F20006
:1003800061E082E00E94F20085E00E94C900892BB2
:1003900071F486E00E94C900892B49F487E00E942D
:1003A000C900892B21F480E00E949E00EDCF81E0FE
:0603B000FBCFF894FFCF23
:00000001FF
